{
  "address": "0x0d1088034d579727B6b62bb639fffc055B7C4Fbb",
  "abi": [
    {
      "anonymous": false,
      "inputs": [
        {
          "indexed": false,
          "internalType": "string",
          "name": "asset",
          "type": "string"
        },
        {
          "indexed": false,
          "internalType": "address",
          "name": "signatureVerifier",
          "type": "address"
        },
        {
          "indexed": false,
          "internalType": "address",
          "name": "token",
          "type": "address"
        },
        {
          "indexed": false,
          "internalType": "string",
          "name": "version",
          "type": "string"
        }
      ],
      "name": "LockGatewayProxyDeployed",
      "type": "event"
    },
    {
      "anonymous": false,
      "inputs": [
        {
          "indexed": false,
          "internalType": "string",
          "name": "symbol",
          "type": "string"
        },
        {
          "indexed": true,
          "internalType": "address",
          "name": "token",
          "type": "address"
        },
        {
          "indexed": true,
          "internalType": "address",
          "name": "gatewayContract",
          "type": "address"
        },
        {
          "indexed": true,
          "internalType": "string",
          "name": "indexedSymbol",
          "type": "string"
        }
      ],
      "name": "LogLockGatewayAdded",
      "type": "event"
    },
    {
      "anonymous": false,
      "inputs": [
        {
          "indexed": false,
          "internalType": "string",
          "name": "symbol",
          "type": "string"
        },
        {
          "indexed": true,
          "internalType": "string",
          "name": "indexedSymbol",
          "type": "string"
        }
      ],
      "name": "LogLockGatewayRemoved",
      "type": "event"
    },
    {
      "anonymous": false,
      "inputs": [
        {
          "indexed": false,
          "internalType": "string",
          "name": "symbol",
          "type": "string"
        },
        {
          "indexed": true,
          "internalType": "address",
          "name": "token",
          "type": "address"
        },
        {
          "indexed": true,
          "internalType": "address",
          "name": "gatewayContract",
          "type": "address"
        },
        {
          "indexed": true,
          "internalType": "string",
          "name": "indexedSymbol",
          "type": "string"
        }
      ],
      "name": "LogMintGatewayAdded",
      "type": "event"
    },
    {
      "anonymous": false,
      "inputs": [
        {
          "indexed": false,
          "internalType": "string",
          "name": "symbol",
          "type": "string"
        },
        {
          "indexed": true,
          "internalType": "string",
          "name": "indexedSymbol",
          "type": "string"
        }
      ],
      "name": "LogMintGatewayRemoved",
      "type": "event"
    },
    {
      "anonymous": false,
      "inputs": [
        {
          "indexed": true,
          "internalType": "address",
          "name": "oldSignatureVerifier",
          "type": "address"
        },
        {
          "indexed": true,
          "internalType": "address",
          "name": "newSignatureVerifier",
          "type": "address"
        }
      ],
      "name": "LogSignatureVerifierUpdated",
      "type": "event"
    },
    {
      "anonymous": false,
      "inputs": [
        {
          "indexed": true,
          "internalType": "address",
          "name": "oldTransferContract",
          "type": "address"
        },
        {
          "indexed": true,
          "internalType": "address",
          "name": "newTransferContract",
          "type": "address"
        }
      ],
      "name": "LogTransferContractUpdated",
      "type": "event"
    },
    {
      "anonymous": false,
      "inputs": [
        {
          "indexed": false,
          "internalType": "string",
          "name": "asset",
          "type": "string"
        },
        {
          "indexed": false,
          "internalType": "address",
          "name": "signatureVerifier",
          "type": "address"
        },
        {
          "indexed": false,
          "internalType": "address",
          "name": "token",
          "type": "address"
        },
        {
          "indexed": false,
          "internalType": "string",
          "name": "version",
          "type": "string"
        }
      ],
      "name": "MintGatewayProxyDeployed",
      "type": "event"
    },
    {
      "anonymous": false,
      "inputs": [
        {
          "indexed": false,
          "internalType": "uint256",
          "name": "chainId",
          "type": "uint256"
        },
        {
          "indexed": false,
          "internalType": "string",
          "name": "asset",
          "type": "string"
        },
        {
          "indexed": false,
          "internalType": "string",
          "name": "name",
          "type": "string"
        },
        {
          "indexed": false,
          "internalType": "string",
          "name": "symbol",
          "type": "string"
        },
        {
          "indexed": false,
          "internalType": "uint8",
          "name": "decimals",
          "type": "uint8"
        },
        {
          "indexed": false,
          "internalType": "string",
          "name": "version",
          "type": "string"
        }
      ],
      "name": "RenAssetProxyDeployed",
      "type": "event"
    },
    {
      "anonymous": false,
      "inputs": [
        {
          "indexed": true,
          "internalType": "bytes32",
          "name": "role",
          "type": "bytes32"
        },
        {
          "indexed": true,
          "internalType": "bytes32",
          "name": "previousAdminRole",
          "type": "bytes32"
        },
        {
          "indexed": true,
          "internalType": "bytes32",
          "name": "newAdminRole",
          "type": "bytes32"
        }
      ],
      "name": "RoleAdminChanged",
      "type": "event"
    },
    {
      "anonymous": false,
      "inputs": [
        {
          "indexed": true,
          "internalType": "bytes32",
          "name": "role",
          "type": "bytes32"
        },
        {
          "indexed": true,
          "internalType": "address",
          "name": "account",
          "type": "address"
        },
        {
          "indexed": true,
          "internalType": "address",
          "name": "sender",
          "type": "address"
        }
      ],
      "name": "RoleGranted",
      "type": "event"
    },
    {
      "anonymous": false,
      "inputs": [
        {
          "indexed": true,
          "internalType": "bytes32",
          "name": "role",
          "type": "bytes32"
        },
        {
          "indexed": true,
          "internalType": "address",
          "name": "account",
          "type": "address"
        },
        {
          "indexed": true,
          "internalType": "address",
          "name": "sender",
          "type": "address"
        }
      ],
      "name": "RoleRevoked",
      "type": "event"
    },
    {
      "inputs": [],
      "name": "CAN_ADD_GATEWAYS",
      "outputs": [
        {
          "internalType": "bytes32",
          "name": "",
          "type": "bytes32"
        }
      ],
      "stateMutability": "view",
      "type": "function"
    },
    {
      "inputs": [],
      "name": "CAN_UPDATE_GATEWAYS",
      "outputs": [
        {
          "internalType": "bytes32",
          "name": "",
          "type": "bytes32"
        }
      ],
      "stateMutability": "view",
      "type": "function"
    },
    {
      "inputs": [],
      "name": "DEFAULT_ADMIN_ROLE",
      "outputs": [
        {
          "internalType": "bytes32",
          "name": "",
          "type": "bytes32"
        }
      ],
      "stateMutability": "view",
      "type": "function"
    },
    {
      "inputs": [],
      "name": "NAME",
      "outputs": [
        {
          "internalType": "string",
          "name": "",
          "type": "string"
        }
      ],
      "stateMutability": "view",
      "type": "function"
    },
    {
      "inputs": [
        {
          "internalType": "uint256",
          "name": "chainId_",
          "type": "uint256"
        },
        {
          "internalType": "address",
          "name": "signatureVerifier_",
          "type": "address"
        },
        {
          "internalType": "address",
          "name": "transferContract",
          "type": "address"
        },
        {
          "internalType": "address",
          "name": "renAssetProxyBeacon_",
          "type": "address"
        },
        {
          "internalType": "address",
          "name": "mintGatewayProxyBeacon_",
          "type": "address"
        },
        {
          "internalType": "address",
          "name": "lockGatewayProxyBeacon_",
          "type": "address"
        },
        {
          "internalType": "address",
          "name": "adminAddress",
          "type": "address"
        },
        {
          "internalType": "address[]",
          "name": "gatewayDeployers",
          "type": "address[]"
        }
      ],
      "name": "__GatewayRegistry_init",
      "outputs": [],
      "stateMutability": "nonpayable",
      "type": "function"
    },
    {
      "inputs": [
        {
          "internalType": "address",
          "name": "renAssetProxyBeacon_",
          "type": "address"
        },
        {
          "internalType": "address",
          "name": "mintGatewayProxyBeacon_",
          "type": "address"
        },
        {
          "internalType": "address",
          "name": "lockGatewayProxyBeacon_",
          "type": "address"
        }
      ],
      "name": "__RenAssetFactory_init",
      "outputs": [],
      "stateMutability": "nonpayable",
      "type": "function"
    },
    {
      "inputs": [
        {
          "internalType": "string",
          "name": "symbol",
          "type": "string"
        },
        {
          "internalType": "address",
          "name": "lockAsset",
          "type": "address"
        },
        {
          "internalType": "address",
          "name": "lockGateway",
          "type": "address"
        }
      ],
      "name": "addLockGateway",
      "outputs": [],
      "stateMutability": "nonpayable",
      "type": "function"
    },
    {
      "inputs": [
        {
          "internalType": "string",
          "name": "symbol",
          "type": "string"
        },
        {
          "internalType": "address",
          "name": "renAsset",
          "type": "address"
        },
        {
          "internalType": "address",
          "name": "mintGateway",
          "type": "address"
        }
      ],
      "name": "addMintGateway",
      "outputs": [],
      "stateMutability": "nonpayable",
      "type": "function"
    },
    {
      "inputs": [
        {
          "internalType": "string",
          "name": "symbol",
          "type": "string"
        },
        {
          "internalType": "address",
          "name": "lockToken",
          "type": "address"
        },
        {
          "internalType": "string",
          "name": "version",
          "type": "string"
        }
      ],
      "name": "deployLockGateway",
      "outputs": [],
      "stateMutability": "nonpayable",
      "type": "function"
    },
    {
      "inputs": [
        {
          "internalType": "string",
          "name": "symbol",
          "type": "string"
        },
        {
          "internalType": "address",
          "name": "renAsset",
          "type": "address"
        },
        {
          "internalType": "string",
          "name": "version",
          "type": "string"
        }
      ],
      "name": "deployMintGateway",
      "outputs": [],
      "stateMutability": "nonpayable",
      "type": "function"
    },
    {
      "inputs": [
        {
          "internalType": "string",
          "name": "symbol",
          "type": "string"
        },
        {
          "internalType": "string",
          "name": "erc20Name",
          "type": "string"
        },
        {
          "internalType": "string",
          "name": "erc20Symbol",
          "type": "string"
        },
        {
          "internalType": "uint8",
          "name": "erc20Decimals",
          "type": "uint8"
        },
        {
          "internalType": "string",
          "name": "version",
          "type": "string"
        }
      ],
      "name": "deployMintGatewayAndRenAsset",
      "outputs": [],
      "stateMutability": "nonpayable",
      "type": "function"
    },
    {
      "inputs": [],
      "name": "getChainId",
      "outputs": [
        {
          "internalType": "uint256",
          "name": "",
          "type": "uint256"
        }
      ],
      "stateMutability": "view",
      "type": "function"
    },
    {
      "inputs": [
        {
          "internalType": "string",
          "name": "tokenSymbol",
          "type": "string"
        }
      ],
      "name": "getGatewayBySymbol",
      "outputs": [
        {
          "internalType": "contract IMintGateway",
          "name": "",
          "type": "address"
        }
      ],
      "stateMutability": "view",
      "type": "function"
    },
    {
      "inputs": [
        {
          "internalType": "address",
          "name": "token",
          "type": "address"
        }
      ],
      "name": "getGatewayByToken",
      "outputs": [
        {
          "internalType": "contract IMintGateway",
          "name": "",
          "type": "address"
        }
      ],
      "stateMutability": "view",
      "type": "function"
    },
    {
      "inputs": [
        {
          "internalType": "string",
          "name": "tokenSymbol",
          "type": "string"
        }
      ],
      "name": "getLockAssetBySymbol",
      "outputs": [
        {
          "internalType": "contract IERC20",
          "name": "",
          "type": "address"
        }
      ],
      "stateMutability": "view",
      "type": "function"
    },
    {
      "inputs": [
        {
          "internalType": "string",
          "name": "tokenSymbol",
          "type": "string"
        }
      ],
      "name": "getLockGatewayBySymbol",
      "outputs": [
        {
          "internalType": "contract ILockGateway",
          "name": "",
          "type": "address"
        }
      ],
      "stateMutability": "view",
      "type": "function"
    },
    {
      "inputs": [
        {
          "internalType": "address",
          "name": "token_",
          "type": "address"
        }
      ],
      "name": "getLockGatewayByToken",
      "outputs": [
        {
          "internalType": "contract ILockGateway",
          "name": "",
          "type": "address"
        }
      ],
      "stateMutability": "view",
      "type": "function"
    },
    {
      "inputs": [],
      "name": "getLockGatewayProxyBeacon",
      "outputs": [
        {
          "internalType": "contract LockGatewayProxyBeacon",
          "name": "",
          "type": "address"
        }
      ],
      "stateMutability": "view",
      "type": "function"
    },
    {
      "inputs": [
        {
          "internalType": "uint256",
          "name": "from",
          "type": "uint256"
        },
        {
          "internalType": "uint256",
          "name": "count",
          "type": "uint256"
        }
      ],
      "name": "getLockGatewaySymbols",
      "outputs": [
        {
          "internalType": "string[]",
          "name": "",
          "type": "string[]"
        }
      ],
      "stateMutability": "view",
      "type": "function"
    },
    {
      "inputs": [
        {
          "internalType": "string",
          "name": "tokenSymbol",
          "type": "string"
        }
      ],
      "name": "getMintGatewayBySymbol",
      "outputs": [
        {
          "internalType": "contract IMintGateway",
          "name": "",
          "type": "address"
        }
      ],
      "stateMutability": "view",
      "type": "function"
    },
    {
      "inputs": [
        {
          "internalType": "address",
          "name": "token",
          "type": "address"
        }
      ],
      "name": "getMintGatewayByToken",
      "outputs": [
        {
          "internalType": "contract IMintGateway",
          "name": "",
          "type": "address"
        }
      ],
      "stateMutability": "view",
      "type": "function"
    },
    {
      "inputs": [],
      "name": "getMintGatewayProxyBeacon",
      "outputs": [
        {
          "internalType": "contract MintGatewayProxyBeacon",
          "name": "",
          "type": "address"
        }
      ],
      "stateMutability": "view",
      "type": "function"
    },
    {
      "inputs": [
        {
          "internalType": "uint256",
          "name": "from",
          "type": "uint256"
        },
        {
          "internalType": "uint256",
          "name": "count",
          "type": "uint256"
        }
      ],
      "name": "getMintGatewaySymbols",
      "outputs": [
        {
          "internalType": "string[]",
          "name": "",
          "type": "string[]"
        }
      ],
      "stateMutability": "view",
      "type": "function"
    },
    {
      "inputs": [
        {
          "internalType": "string",
          "name": "tokenSymbol",
          "type": "string"
        }
      ],
      "name": "getRenAssetBySymbol",
      "outputs": [
        {
          "internalType": "contract IERC20",
          "name": "",
          "type": "address"
        }
      ],
      "stateMutability": "view",
      "type": "function"
    },
    {
      "inputs": [],
      "name": "getRenAssetProxyBeacon",
      "outputs": [
        {
          "internalType": "contract RenAssetProxyBeacon",
          "name": "",
          "type": "address"
        }
      ],
      "stateMutability": "view",
      "type": "function"
    },
    {
      "inputs": [
        {
          "internalType": "bytes32",
          "name": "role",
          "type": "bytes32"
        }
      ],
      "name": "getRoleAdmin",
      "outputs": [
        {
          "internalType": "bytes32",
          "name": "",
          "type": "bytes32"
        }
      ],
      "stateMutability": "view",
      "type": "function"
    },
    {
      "inputs": [
        {
          "internalType": "bytes32",
          "name": "role",
          "type": "bytes32"
        },
        {
          "internalType": "uint256",
          "name": "index",
          "type": "uint256"
        }
      ],
      "name": "getRoleMember",
      "outputs": [
        {
          "internalType": "address",
          "name": "",
          "type": "address"
        }
      ],
      "stateMutability": "view",
      "type": "function"
    },
    {
      "inputs": [
        {
          "internalType": "bytes32",
          "name": "role",
          "type": "bytes32"
        }
      ],
      "name": "getRoleMemberCount",
      "outputs": [
        {
          "internalType": "uint256",
          "name": "",
          "type": "uint256"
        }
      ],
      "stateMutability": "view",
      "type": "function"
    },
    {
      "inputs": [],
      "name": "getSignatureVerifier",
      "outputs": [
        {
          "internalType": "address",
          "name": "",
          "type": "address"
        }
      ],
      "stateMutability": "view",
      "type": "function"
    },
    {
      "inputs": [
        {
          "internalType": "string",
          "name": "tokenSymbol",
          "type": "string"
        }
      ],
      "name": "getTokenBySymbol",
      "outputs": [
        {
          "internalType": "contract IERC20",
          "name": "",
          "type": "address"
        }
      ],
      "stateMutability": "view",
      "type": "function"
    },
    {
      "inputs": [],
      "name": "getTransferContract",
      "outputs": [
        {
          "internalType": "address",
          "name": "",
          "type": "address"
        }
      ],
      "stateMutability": "view",
      "type": "function"
    },
    {
      "inputs": [
        {
          "internalType": "bytes32",
          "name": "role",
          "type": "bytes32"
        },
        {
          "internalType": "address",
          "name": "account",
          "type": "address"
        }
      ],
      "name": "grantRole",
      "outputs": [],
      "stateMutability": "nonpayable",
      "type": "function"
    },
    {
      "inputs": [
        {
          "internalType": "bytes32",
          "name": "role",
          "type": "bytes32"
        },
        {
          "internalType": "address",
          "name": "account",
          "type": "address"
        }
      ],
      "name": "hasRole",
      "outputs": [
        {
          "internalType": "bool",
          "name": "",
          "type": "bool"
        }
      ],
      "stateMutability": "view",
      "type": "function"
    },
    {
      "inputs": [
        {
          "internalType": "string",
          "name": "symbol",
          "type": "string"
        }
      ],
      "name": "removeLockGateway",
      "outputs": [],
      "stateMutability": "nonpayable",
      "type": "function"
    },
    {
      "inputs": [
        {
          "internalType": "string",
          "name": "symbol",
          "type": "string"
        }
      ],
      "name": "removeMintGateway",
      "outputs": [],
      "stateMutability": "nonpayable",
      "type": "function"
    },
    {
      "inputs": [
        {
          "internalType": "bytes32",
          "name": "role",
          "type": "bytes32"
        },
        {
          "internalType": "address",
          "name": "account",
          "type": "address"
        }
      ],
      "name": "renounceRole",
      "outputs": [],
      "stateMutability": "nonpayable",
      "type": "function"
    },
    {
      "inputs": [
        {
          "internalType": "bytes32",
          "name": "role",
          "type": "bytes32"
        },
        {
          "internalType": "address",
          "name": "account",
          "type": "address"
        }
      ],
      "name": "revokeRole",
      "outputs": [],
      "stateMutability": "nonpayable",
      "type": "function"
    },
    {
      "inputs": [
        {
          "internalType": "bytes4",
          "name": "interfaceId",
          "type": "bytes4"
        }
      ],
      "name": "supportsInterface",
      "outputs": [
        {
          "internalType": "bool",
          "name": "",
          "type": "bool"
        }
      ],
      "stateMutability": "view",
      "type": "function"
    },
    {
      "inputs": [
        {
          "internalType": "address",
          "name": "newSignatureVerifier",
          "type": "address"
        }
      ],
      "name": "updateSignatureVerifier",
      "outputs": [],
      "stateMutability": "nonpayable",
      "type": "function"
    },
    {
      "inputs": [
        {
          "internalType": "address",
          "name": "newTransferContract",
          "type": "address"
        }
      ],
      "name": "updateTransferContract",
      "outputs": [],
      "stateMutability": "nonpayable",
      "type": "function"
    }
  ],
  "transactionHash": "0xd9b4a31edf0cd3671535d3b46198ff9716191a6e03e1528beb8be422baf83c16",
  "args": [],
  "solcInputHash": "5b6b2689ed9e6b3172aee736600c5c8e",
  "bytecode": "0x608060405234801561001057600080fd5b506135d6806100206000396000f3fe608060405234801561001057600080fd5b50600436106102485760003560e01c8063679150dd1161013b578063aa1ab9e3116100b8578063d2b05fb91161007c578063d2b05fb91461053c578063d547741f1461054f578063d8a5372414610562578063efa74f1f14610573578063fc3212c01461058657600080fd5b8063aa1ab9e3146104e8578063aa883642146104fd578063c862c82514610510578063c9eae0b214610518578063ca15c8731461052957600080fd5b806391d14854116100ff57806391d148541461046c5780639c789bb81461047f578063a217fddf14610492578063a30c50ba1461049a578063a3f4df7e146104ad57600080fd5b8063679150dd1461040057806379c73a7a146104135780637b5c884f14610426578063868b3541146104395780639010d07c1461045957600080fd5b8063345763ad116101c9578063475400ba1161018d578063475400ba146103a35780634ca233e7146103b65780634cb39177146103c75780635667981b146103da57806364936b1e146103ed57600080fd5b8063345763ad1461034f57806336568abe146103575780633922d1391461036a5780633b8ce8b21461037d578063462b8ed11461039057600080fd5b8063248a9ca311610210578063248a9ca3146102eb5780632949c6151461030e5780632d2798ca146103215780632f2ff15d146103345780633408e4701461034757600080fd5b806301ffc9a71461024d5780630b8e0b381461027557806315267d97146102985780631b95e305146102ad5780631f179f6e146102d8575b600080fd5b61026061025b366004612b60565b610599565b60405190151581526020015b60405180910390f35b61028a60008051602061356183398151915281565b60405190815260200161026c565b6102ab6102a6366004612bcc565b6105c4565b005b6102c06102bb366004612a70565b610915565b6040516001600160a01b03909116815260200161026c565b6102ab6102e6366004612aaa565b610920565b61028a6102f9366004612af5565b60009081526065602052604090206001015490565b6102c061031c366004612a70565b6109d4565b6102ab61032f366004612b8a565b610a1a565b6102ab610342366004612b0e565b610ba4565b60d55461028a565b6102c0610bcb565b6102ab610365366004612b0e565b610c36565b6102c0610378366004612b8a565b610c58565b6102ab61038b366004612a70565b610c8d565b6102ab61039e366004612c34565b610d91565b6102ab6103b1366004612bcc565b610e91565b60c9546001600160a01b03166102c0565b6102ab6103d5366004612b8a565b611118565b6102ab6103e8366004612a70565b6112cd565b6102c06103fb366004612b8a565b6113d2565b6102ab61040e366004612d9a565b6113e5565b6102c0610421366004612b8a565b611537565b6102c0610434366004612b8a565b61156f565b61044c610447366004612b3e565b611583565b60405161026c9190613122565b6102c0610467366004612b3e565b611591565b61026061047a366004612b0e565b6115a9565b6102c061048d366004612b8a565b6115d4565b61028a600081565b61044c6104a8366004612b3e565b6115e8565b6104db6040518060400160405280600f81526020016e47617465776179526567697374727960881b81525081565b60405161026c9190613239565b61028a60008051602061358183398151915281565b6102ab61050b366004612cb9565b6115f6565b6102c0611776565b60cb546001600160a01b03166102c0565b61028a610537366004612af5565b6117e1565b6102ab61054a366004612c34565b6117f8565b6102ab61055d366004612b0e565b6118ee565b60ca546001600160a01b03166102c0565b6102c0610581366004612b8a565b6118f8565b6102c0610594366004612a70565b611904565b60006001600160e01b03198216635a05180f60e01b14806105be57506105be8261192b565b92915050565b838361060582828080601f01602080910402602001604051908101604052809392919081815260200183838082843760009201919091525061196092505050565b61062a5760405162461bcd60e51b8152600401610621906132e1565b60405180910390fd5b6000805160206135818339815191526040518060400160405280601081526020016f43414e5f4144445f474154455741595360801b815250610673828261066e3390565b61197c565b6106b688888080601f01602080910402602001604051908101604052809392919081815260200183838082843760009201919091525060cc939250506119b09050565b156106c5576106c58888610a1a565b6001600160a01b038616600090815260d060205260409020805461077191906106ed9061349d565b80601f01602080910402602001604051908101604052809291908181526020018280546107199061349d565b80156107665780601f1061073b57610100808354040283529160200191610766565b820191906000526020600020905b81548152906001019060200180831161074957829003601f168201915b505050505051151590565b156107c8576001600160a01b038616600090815260d0602090815260409182902091516107a2928b928b9201612fd2565b60408051601f198184030181529082905262461bcd60e51b825261062191600401613239565b61080b88888080601f01602080910402602001604051908101604052809392919081815260200183838082843760009201919091525060cc939250506119dd9050565b506040518060400160405280866001600160a01b03168152602001876001600160a01b031681525060d18989604051610845929190612f78565b9081526040805160209281900383019020835181546001600160a01b03199081166001600160a01b03928316178355948401516001909201805490951691811691909117909355918816600090815260d0909152206108a59089896128e0565b5087876040516108b6929190612f78565b6040518091039020856001600160a01b0316876001600160a01b03167fcad7b468e68f9217d53eb40b3ec0388b654c5532f10ee1d074e6a4648d9132de8b8b6040516109039291906131a5565b60405180910390a45050505050505050565b60006105be826109d4565b600054610100900460ff1680610939575060005460ff16155b6109555760405162461bcd60e51b815260040161062190613293565b600054610100900460ff16158015610977576000805461ffff19166101011790555b61097f611a49565b60c980546001600160a01b038087166001600160a01b03199283161790925560ca805486841690831617905560cb80549285169290911691909117905580156109ce576000805461ff00191690555b50505050565b6001600160a01b038116600090815260d06020526040808220905160d1916109fb91612fc6565b908152604051908190036020019020546001600160a01b031692915050565b6000805160206135618339815191526040518060400160405280601381526020017243414e5f5550444154455f474154455741595360681b815250610a61828261066e3390565b600060d18585604051610a75929190612f78565b908152604051908190036020019020600101546001600160a01b0316905080610ab05760405162461bcd60e51b81526004016106219061324c565b6001600160a01b038116600090815260d060205260408120610ad191612964565b60d18585604051610ae3929190612f78565b908152604080516020928190038301812080546001600160a01b03199081168255600190910180549091169055601f8701839004830281018301909152858152610b4b91879087908190840183828082843760009201919091525060cc93925050611abd9050565b508484604051610b5c929190612f78565b60405180910390207fe866c85fe262d07b6c48d6ab63d88342a1aabdbc04edf4c26760b6ade7e9ab8f8686604051610b959291906131a5565b60405180910390a25050505050565b610bae8282611c83565b6000828152609760205260409020610bc69082611ca9565b505050565b60d4546000906001600160a01b0316610c265760405162461bcd60e51b815260206004820181905260248201527f4761746577617952656769737472793a206e6f7420696e697469616c697a65646044820152606401610621565b5060d4546001600160a01b031690565b610c408282611cbe565b6000828152609760205260409020610bc69082611d3c565b600060d38383604051610c6c929190612f78565b908152604051908190036020019020546001600160a01b0316905092915050565b6000805160206135618339815191526040518060400160405280601381526020017243414e5f5550444154455f474154455741595360681b815250610cd4828261066e3390565b6001600160a01b038316610d3d5760405162461bcd60e51b815260206004820152602a60248201527f4761746577617952656769737472793a20696e76616c6964207472616e736665604482015269722077697468206c6f6760b01b6064820152608401610621565b60d680546001600160a01b038581166001600160a01b0319831681179093556040519116919082907f0c08396a0cda5d6903e9ba4be3b9ba74edebb3a8b519957303bd05692829d95b90600090a350505050565b6000805160206135818339815191526040518060400160405280601081526020016f43414e5f4144445f474154455741595360801b815250610dd5828261066e3390565b610e1887878080601f01602080910402602001604051908101604052809392919081815260200183838082843760009201919091525060cc939250506119b09050565b15610e6257610e626000805160206135618339815191526040518060400160405280601381526020017243414e5f5550444154455f474154455741595360681b81525061066e3390565b6000610e798888610e71610bcb565b898989611d51565b9050610e87888888846105c4565b5050505050505050565b8383610ed282828080601f01602080910402602001604051908101604052809392919081815260200183838082843760009201919091525061196092505050565b610eee5760405162461bcd60e51b8152600401610621906132e1565b6000805160206135818339815191526040518060400160405280601081526020016f43414e5f4144445f474154455741595360801b815250610f32828261066e3390565b610f7588888080601f01602080910402602001604051908101604052809392919081815260200183838082843760009201919091525060ce939250506119b09050565b15610f8457610f848888611118565b6001600160a01b038616600090815260d2602052604090208054610fac91906106ed9061349d565b15610fdd576001600160a01b038616600090815260d2602090815260409182902091516107a2928b928b9201612fd2565b61102088888080601f01602080910402602001604051908101604052809392919081815260200183838082843760009201919091525060ce939250506119dd9050565b506040518060400160405280866001600160a01b03168152602001876001600160a01b031681525060d3898960405161105a929190612f78565b9081526040805160209281900383019020835181546001600160a01b03199081166001600160a01b03928316178355948401516001909201805490951691811691909117909355918816600090815260d2909152206110ba9089896128e0565b5087876040516110cb929190612f78565b6040518091039020856001600160a01b0316876001600160a01b03167fae2f49e1012259f6f5b76b5cd2bceda776aedbf9138362abec5f18171a4e89d48b8b6040516109039291906131a5565b6000805160206135618339815191526040518060400160405280601381526020017243414e5f5550444154455f474154455741595360681b81525061115f828261066e3390565b6111a284848080601f01602080910402602001604051908101604052809392919081815260200183838082843760009201919091525060ce939250506119b09050565b6111be5760405162461bcd60e51b81526004016106219061324c565b600060d385856040516111d2929190612f78565b9081526040805160209281900383019020600101546001600160a01b0316600081815260d290935290822090925061120991612964565b60d3858560405161121b929190612f78565b908152604080516020928190038301812080546001600160a01b03199081168255600190910180549091169055601f870183900483028101830190915285815261128391879087908190840183828082843760009201919091525060ce93925050611abd9050565b508484604051611294929190612f78565b60405180910390207f56eb2a9e05250090feccfe733b5711edd5fde92f05aab719e8097136311247838686604051610b959291906131a5565b6000805160206135618339815191526040518060400160405280601381526020017243414e5f5550444154455f474154455741595360681b815250611314828261066e3390565b6001600160a01b03831661137e5760405162461bcd60e51b815260206004820152602b60248201527f4761746577617952656769737472793a20696e76616c6964207369676e61747560448201526a3932903b32b934b334b2b960a91b6064820152608401610621565b60d480546001600160a01b038581166001600160a01b0319831681179093556040519116919082907ff7dbe6f0a40adabc688e64fce7060ca2f466fbf846227fb5e4e05305553bae5e90600090a350505050565b60006113de838361156f565b9392505050565b600054610100900460ff16806113fe575060005460ff16155b61141a5760405162461bcd60e51b815260040161062190613293565b600054610100900460ff1615801561143c576000805461ffff19166101011790555b611444611eaa565b61144f878787610920565b60d58a905560d480546001600160a01b03808c166001600160a01b03199283161790925560d68054928b169290911691909117905561148f600085611f19565b6114a760008051602061356183398151915285611f19565b6114bf60008051602061358183398151915285611f19565b60005b82811015611518576115086000805160206135818339815191528585848181106114ee576114ee61351f565b90506020020160208101906115039190612a70565b611f19565b611511816134d8565b90506114c2565b50801561152b576000805461ff00191690555b50505050505050505050565b600060d1838360405161154b929190612f78565b908152604051908190036020019020600101546001600160a01b0316905092915050565b600060d18383604051610c6c929190612f78565b60606113de60cc8484611f23565b60008281526097602052604081206113de9083612002565b60009182526065602090815260408084206001600160a01b0393909316845291905290205460ff1690565b600060d3838360405161154b929190612f78565b60606113de60ce8484611f23565b6000805160206135818339815191526040518060400160405280601081526020016f43414e5f4144445f474154455741595360801b81525061163a828261066e3390565b61167d8b8b8080601f01602080910402602001604051908101604052809392919081815260200183838082843760009201919091525060cc939250506119b09050565b156116c7576116c76000805160206135618339815191526040518060400160405280601381526020017243414e5f5550444154455f474154455741595360681b81525061066e3390565b60006116e36116d560d55490565b8d8d8d8d8d8d8d8d8d61200e565b905060006116fc8d8d6116f4610bcb565b858a8a611d51565b60405163f2fde38b60e01b81526001600160a01b0380831660048301529192509083169063f2fde38b90602401600060405180830381600087803b15801561174357600080fd5b505af1158015611757573d6000803e3d6000fd5b505050506117678d8d84846105c4565b50505050505050505050505050565b60d6546000906001600160a01b03166117d15760405162461bcd60e51b815260206004820181905260248201527f4761746577617952656769737472793a206e6f7420696e697469616c697a65646044820152606401610621565b5060d6546001600160a01b031690565b60008181526097602052604081206105be9061217e565b6000805160206135818339815191526040518060400160405280601081526020016f43414e5f4144445f474154455741595360801b81525061183c828261066e3390565b61187f87878080601f01602080910402602001604051908101604052809392919081815260200183838082843760009201919091525060ce939250506119b09050565b156118c9576118c96000805160206135618339815191526040518060400160405280601381526020017243414e5f5550444154455f474154455741595360681b81525061066e3390565b60006118e088886118d8610bcb565b898989612188565b9050610e8788888884610e91565b610c4082826122cd565b60006113de8383611537565b6001600160a01b038116600090815260d26020526040808220905160d3916109fb91612fc6565b60006001600160e01b03198216637965db0b60e01b14806105be57506301ffc9a760e01b6001600160e01b03198316146105be565b600061196c8251151590565b80156105be57506105be826122f3565b61198683826115a9565b610bc65761199e816001600160a01b03166014612399565b826040516020016107a2929190613038565b600082600101826040516119c49190612faa565b9081526040519081900360200190205415159392505050565b60006119e983836119b0565b611a4157825460018101845560008481526020908190208451611a1393919091019185019061299e565b5082546040516001850190611a29908590612faa565b908152604051908190036020019020555060016105be565b5060006105be565b600054610100900460ff1680611a62575060005460ff16155b611a7e5760405162461bcd60e51b815260040161062190613293565b600054610100900460ff16158015611aa0576000805461ffff19166101011790555b611aa8612535565b8015611aba576000805461ff00191690555b50565b6000808360010183604051611ad29190612faa565b908152602001604051809103902054905080600014611c79576000611af8600183613443565b8554909150600090611b0c90600190613443565b9050818114611c1a576000866000018281548110611b2c57611b2c61351f565b906000526020600020018054611b419061349d565b80601f0160208091040260200160405190810160405280929190818152602001828054611b6d9061349d565b8015611bba5780601f10611b8f57610100808354040283529160200191611bba565b820191906000526020600020905b815481529060010190602001808311611b9d57829003601f168201915b5050505050905080876000018481548110611bd757611bd761351f565b906000526020600020019080519060200190611bf492919061299e565b50838760010182604051611c089190612faa565b90815260405190819003602001902055505b8554869080611c2b57611c2b613509565b600190038181906000526020600020016000611c479190612964565b90558560010185604051611c5b9190612faa565b908152602001604051809103902060009055600193505050506105be565b60009150506105be565b600082815260656020526040902060010154611c9f813361259f565b610bc683836125dd565b60006113de836001600160a01b038416612663565b6001600160a01b0381163314611d2e5760405162461bcd60e51b815260206004820152602f60248201527f416363657373436f6e74726f6c3a2063616e206f6e6c792072656e6f756e636560448201526e103937b632b9903337b91039b2b63360891b6064820152608401610621565b611d3882826126aa565b5050565b60006113de836001600160a01b038416612711565b60008087878787604051602401611d6b94939291906131b9565b60408051601f19818403018152918152602080830180516001600160e01b031662656def60e51b1790529051919250600091611daf918b918b918991899101612f88565b6040516020818303038152906040528051906020012090506000611ddb60ca546001600160a01b031690565b6001600160a01b031663ec54d72f83856040518363ffffffff1660e01b8152600401611e08929190613184565b602060405180830381600087803b158015611e2257600080fd5b505af1158015611e36573d6000803e3d6000fd5b505050506040513d601f19601f82011682018060405250810190611e5a9190612a8d565b90507f9290421060d7423affd854f8970f9c7844b875d49560108c05a6640a155c4a3c8a8a8a8a8a8a604051611e95969594939291906131ee565b60405180910390a19998505050505050505050565b600054610100900460ff1680611ec3575060005460ff16155b611edf5760405162461bcd60e51b815260040161062190613293565b600054610100900460ff16158015611f01576000805461ffff19166101011790555b611f09612535565b611f11612535565b611aa0612535565b610bae82826127fa565b60606000611f2f855490565b9050821580611f46575080611f44848661340c565b115b15611f5857611f558482613443565b92505b60008367ffffffffffffffff811115611f7357611f73613535565b604051908082528060200260200182016040528015611fa657816020015b6060815260200190600190039081611f915790505b50905060005b84811015611ff857611fc8611fc1878361340c565b8890612804565b828281518110611fda57611fda61351f565b60200260200101819052508080611ff0906134d8565b915050611fac565b5095945050505050565b60006113de83836128b6565b6000808b84848b8b8b8b8b306040516024016120329998979695949392919061332f565b60408051601f19818403018152918152602080830180516001600160e01b031663a2f907c160e01b1790529051919250600091612077918e918e918991899101612f88565b60405160208183030381529060405280519060200120905060006120a360c9546001600160a01b031690565b6001600160a01b031663ec54d72f83856040518363ffffffff1660e01b81526004016120d0929190613184565b602060405180830381600087803b1580156120ea57600080fd5b505af11580156120fe573d6000803e3d6000fd5b505050506040513d601f19601f820116820180604052508101906121229190612a8d565b90507f897f32ae3519583b51a24469bfe0e3c28070052d9ba8e7b55fc2b1f7cef161418e8e8e8e8e8e8e8e8e8e6040516121659a9998979695949392919061339b565b60405180910390a19d9c50505050505050505050505050565b60006105be825490565b600080878787876040516024016121a294939291906131b9565b60408051601f19818403018152918152602080830180516001600160e01b03166317e527c360e11b17905290519192506000916121e7918b918b918991899101612f88565b604051602081830303815290604052805190602001209050600061221360cb546001600160a01b031690565b6001600160a01b031663ec54d72f83856040518363ffffffff1660e01b8152600401612240929190613184565b602060405180830381600087803b15801561225a57600080fd5b505af115801561226e573d6000803e3d6000fd5b505050506040513d601f19601f820116820180604052508101906122929190612a8d565b90507f79cf56095157748db15b84e7b960cef5af039a6ef2409fdeb52c1173c86ed2ec8a8a8a8a8a8a604051611e95969594939291906131ee565b6000828152606560205260409020600101546122e9813361259f565b610bc683836126aa565b6000805b82518110156123905760008382815181106123145761231461351f565b016020015160f81c9050604181108015906123335750605a8160ff1611155b80612351575060618160ff16101580156123515750607a8160ff1611155b8061236f575060308160ff161015801561236f575060398160ff1611155b61237d575060009392505050565b5080612388816134d8565b9150506122f7565b50600192915050565b606060006123a8836002613424565b6123b390600261340c565b67ffffffffffffffff8111156123cb576123cb613535565b6040519080825280601f01601f1916602001820160405280156123f5576020820181803683370190505b509050600360fc1b816000815181106124105761241061351f565b60200101906001600160f81b031916908160001a905350600f60fb1b8160018151811061243f5761243f61351f565b60200101906001600160f81b031916908160001a9053506000612463846002613424565b61246e90600161340c565b90505b60018111156124e6576f181899199a1a9b1b9c1cb0b131b232b360811b85600f16601081106124a2576124a261351f565b1a60f81b8282815181106124b8576124b861351f565b60200101906001600160f81b031916908160001a90535060049490941c936124df81613486565b9050612471565b5083156113de5760405162461bcd60e51b815260206004820181905260248201527f537472696e67733a20686578206c656e67746820696e73756666696369656e746044820152606401610621565b600054610100900460ff168061254e575060005460ff16155b61256a5760405162461bcd60e51b815260040161062190613293565b600054610100900460ff16158015611aa8576000805461ffff19166101011790558015611aba576000805461ff001916905550565b6125a982826115a9565b611d38576125c1816001600160a01b03166014612399565b6125cc836020612399565b6040516020016107a29291906130ad565b6125e782826115a9565b611d385760008281526065602090815260408083206001600160a01b03851684529091529020805460ff1916600117905561261f3390565b6001600160a01b0316816001600160a01b0316837f2f8788117e7eff1d82e926ec794901d17c78024a50270940304540a733656f0d60405160405180910390a45050565b6000818152600183016020526040812054611a41575081546001818101845560008481526020808220909301849055845484825282860190935260409020919091556105be565b6126b482826115a9565b15611d385760008281526065602090815260408083206001600160a01b0385168085529252808320805460ff1916905551339285917ff6391f5c32d9c69d2a47ea670b442974b53935d1edc7fd64eb21e047a839171b9190a45050565b60008181526001830160205260408120548015611c79576000612735600183613443565b855490915060009061274990600190613443565b90508181146127ae5760008660000182815481106127695761276961351f565b906000526020600020015490508087600001848154811061278c5761278c61351f565b6000918252602080832090910192909255918252600188019052604090208390555b85548690806127bf576127bf613509565b6001900381819060005260206000200160009055905585600101600086815260200190815260200160002060009055600193505050506105be565b611d3882826125dd565b606082600001828154811061281b5761281b61351f565b9060005260206000200180546128309061349d565b80601f016020809104026020016040519081016040528092919081815260200182805461285c9061349d565b80156128a95780601f1061287e576101008083540402835291602001916128a9565b820191906000526020600020905b81548152906001019060200180831161288c57829003601f168201915b5050505050905092915050565b60008260000182815481106128cd576128cd61351f565b9060005260206000200154905092915050565b8280546128ec9061349d565b90600052602060002090601f01602090048101928261290e5760008555612954565b82601f106129275782800160ff19823516178555612954565b82800160010185558215612954579182015b82811115612954578235825591602001919060010190612939565b50612960929150612a12565b5090565b5080546129709061349d565b6000825580601f10612980575050565b601f016020900490600052602060002090810190611aba9190612a12565b8280546129aa9061349d565b90600052602060002090601f0160209004810192826129cc5760008555612954565b82601f106129e557805160ff1916838001178555612954565b82800160010185558215612954579182015b828111156129545782518255916020019190600101906129f7565b5b808211156129605760008155600101612a13565b60008083601f840112612a3957600080fd5b50813567ffffffffffffffff811115612a5157600080fd5b602083019150836020828501011115612a6957600080fd5b9250929050565b600060208284031215612a8257600080fd5b81356113de8161354b565b600060208284031215612a9f57600080fd5b81516113de8161354b565b600080600060608486031215612abf57600080fd5b8335612aca8161354b565b92506020840135612ada8161354b565b91506040840135612aea8161354b565b809150509250925092565b600060208284031215612b0757600080fd5b5035919050565b60008060408385031215612b2157600080fd5b823591506020830135612b338161354b565b809150509250929050565b60008060408385031215612b5157600080fd5b50508035926020909101359150565b600060208284031215612b7257600080fd5b81356001600160e01b0319811681146113de57600080fd5b60008060208385031215612b9d57600080fd5b823567ffffffffffffffff811115612bb457600080fd5b612bc085828601612a27565b90969095509350505050565b60008060008060608587031215612be257600080fd5b843567ffffffffffffffff811115612bf957600080fd5b612c0587828801612a27565b9095509350506020850135612c198161354b565b91506040850135612c298161354b565b939692955090935050565b600080600080600060608688031215612c4c57600080fd5b853567ffffffffffffffff80821115612c6457600080fd5b612c7089838a01612a27565b909750955060208801359150612c858261354b565b90935060408701359080821115612c9b57600080fd5b50612ca888828901612a27565b969995985093965092949392505050565b600080600080600080600080600060a08a8c031215612cd757600080fd5b893567ffffffffffffffff80821115612cef57600080fd5b612cfb8d838e01612a27565b909b50995060208c0135915080821115612d1457600080fd5b612d208d838e01612a27565b909950975060408c0135915080821115612d3957600080fd5b612d458d838e01612a27565b909750955060608c0135915060ff82168214612d6057600080fd5b90935060808b01359080821115612d7657600080fd5b50612d838c828d01612a27565b915080935050809150509295985092959850929598565b60008060008060008060008060006101008a8c031215612db957600080fd5b8935985060208a0135612dcb8161354b565b975060408a0135612ddb8161354b565b965060608a0135612deb8161354b565b955060808a0135612dfb8161354b565b945060a08a0135612e0b8161354b565b935060c08a0135612e1b8161354b565b925060e08a013567ffffffffffffffff80821115612e3857600080fd5b818c0191508c601f830112612e4c57600080fd5b813581811115612e5b57600080fd5b8d60208260051b8501011115612e7057600080fd5b6020830194508093505050509295985092959850929598565b60008151808452612ea181602086016020860161345a565b601f01601f19169290920160200192915050565b81835281816020850137506000828201602090810191909152601f909101601f19169091010190565b8054600090600181811c9080831680612ef857607f831692505b6020808410821415612f1a57634e487b7160e01b600052602260045260246000fd5b818015612f2e5760018114612f3f57612f6c565b60ff19861689528489019650612f6c565b60008881526020902060005b86811015612f645781548b820152908501908301612f4b565b505084890196505b50505050505092915050565b8183823760009101908152919050565b8385823760008482016000815283858237600093019283525090949350505050565b60008251612fbc81846020870161345a565b9190910192915050565b60006113de8284612ede565b70023b0ba32bbb0bca932b3b4b9ba393c9d1607d1b815282846011830137600083820160118101600081527f20746f6b656e20616c726561647920726567697374657265642061732000000081525061302e602e820185612ede565b9695505050505050565b7f4761746577617952656769737472793a206163636f756e74200000000000000081526000835161307081601985016020880161345a565b7001034b99036b4b9b9b4b733903937b6329607d1b60199184019182015283516130a181602a84016020880161345a565b01602a01949350505050565b7f416363657373436f6e74726f6c3a206163636f756e74200000000000000000008152600083516130e581601785016020880161345a565b7001034b99036b4b9b9b4b733903937b6329607d1b601791840191820152835161311681602884016020880161345a565b01602801949350505050565b6000602080830181845280855180835260408601915060408160051b870101925083870160005b8281101561317757603f19888603018452613165858351612e89565b94509285019290850190600101613149565b5092979650505050505050565b82815260406020820152600061319d6040830184612e89565b949350505050565b60208152600061319d602083018486612eb5565b6060815260006131cd606083018688612eb5565b6001600160a01b039485166020840152929093166040909101529392505050565b60808152600061320260808301888a612eb5565b6001600160a01b03878116602085015286166040840152828103606084015261322c818587612eb5565b9998505050505050505050565b6020815260006113de6020830184612e89565b60208082526027908201527f4761746577617952656769737472793a2067617465776179206e6f74207265676040820152661a5cdd195c995960ca1b606082015260800190565b6020808252602e908201527f496e697469616c697a61626c653a20636f6e747261637420697320616c72656160408201526d191e481a5b9a5d1a585b1a5e995960921b606082015260800190565b6020808252602e908201527f4761746577617952656769737472793a20656d707479206f7220696e76616c6960408201526d19081cdd1c9a5b99c81a5b9c1d5d60921b606082015260800190565b89815260c06020820152600061334960c083018a8c612eb5565b828103604084015261335c81898b612eb5565b90508281036060840152613371818789612eb5565b60ff95909516608084015250506001600160a01b039190911660a090910152979650505050505050565b8a815260c0602082015260006133b560c083018b8d612eb5565b82810360408401526133c8818a8c612eb5565b905082810360608401526133dd81888a612eb5565b905060ff8616608084015282810360a08401526133fb818587612eb5565b9d9c50505050505050505050505050565b6000821982111561341f5761341f6134f3565b500190565b600081600019048311821515161561343e5761343e6134f3565b500290565b600082821015613455576134556134f3565b500390565b60005b8381101561347557818101518382015260200161345d565b838111156109ce5750506000910152565b600081613495576134956134f3565b506000190190565b600181811c908216806134b157607f821691505b602082108114156134d257634e487b7160e01b600052602260045260246000fd5b50919050565b60006000198214156134ec576134ec6134f3565b5060010190565b634e487b7160e01b600052601160045260246000fd5b634e487b7160e01b600052603160045260246000fd5b634e487b7160e01b600052603260045260246000fd5b634e487b7160e01b600052604160045260246000fd5b6001600160a01b0381168114611aba57600080fdfeffddc8bfa55e17b4d21e6c83e86327dfded4d7c9dd051c00ab7b11c8a387c14a906a1b6d8666ab930891bffd6f4ca7e6fa437b6e3a66b10e0206c563ed50772ba26469706673582212209e1b3a17f2af278ff1fcdeff09ba2f4f679138e623463dcd1efe7c83308b762764736f6c63430008070033",
  "devdoc": {
    "events": {
      "LogMintGatewayAdded(string,address,address,string)": {
        "details": "The symbol is included twice because strings have to be hashed first in order to be used as a log index/topic."
      }
    },
    "kind": "dev",
    "methods": {
      "addLockGateway(string,address,address)": {
        "params": {
          "lockAsset": "The address of the RenERC20 token contract.",
          "lockGateway": "The address of the Gateway contract.",
          "symbol": "A string that identifies the token and gateway pair."
        }
      },
      "addMintGateway(string,address,address)": {
        "params": {
          "mintGateway": "The address of the Gateway contract.",
          "renAsset": "The address of the RenERC20 token contract.",
          "symbol": "A string that identifies the token and gateway pair."
        }
      },
      "getLockGatewaySymbols(uint256,uint256)": {
        "details": "To get all the registered tokens set count to `0`."
      },
      "getMintGatewayBySymbol(string)": {
        "params": {
          "tokenSymbol": "The symbol of the RenERC20 token contract."
        }
      },
      "getMintGatewayByToken(address)": {
        "params": {
          "token": "The address of the RenERC20 token contract."
        }
      },
      "getMintGatewaySymbols(uint256,uint256)": {
        "details": "To get all the registered Gateway contracts set count to `0`."
      },
      "getRenAssetBySymbol(string)": {
        "params": {
          "tokenSymbol": "The symbol of the RenERC20 token contract to        lookup."
        }
      },
      "getRoleAdmin(bytes32)": {
        "details": "Returns the admin role that controls `role`. See {grantRole} and {revokeRole}. To change a role's admin, use {_setRoleAdmin}."
      },
      "getRoleMember(bytes32,uint256)": {
        "details": "Returns one of the accounts that have `role`. `index` must be a value between 0 and {getRoleMemberCount}, non-inclusive. Role bearers are not sorted in any particular way, and their ordering may change at any point. WARNING: When using {getRoleMember} and {getRoleMemberCount}, make sure you perform all queries on the same block. See the following https://forum.openzeppelin.com/t/iterating-over-elements-on-enumerableset-in-openzeppelin-contracts/2296[forum post] for more information."
      },
      "getRoleMemberCount(bytes32)": {
        "details": "Returns the number of accounts that have `role`. Can be used together with {getRoleMember} to enumerate all bearers of a role."
      },
      "grantRole(bytes32,address)": {
        "details": "Overload {grantRole} to track enumerable memberships"
      },
      "hasRole(bytes32,address)": {
        "details": "Returns `true` if `account` has been granted `role`."
      },
      "removeLockGateway(string)": {
        "params": {
          "symbol": "The symbol of the token to deregister."
        }
      },
      "removeMintGateway(string)": {
        "params": {
          "symbol": "The symbol of the token to deregister."
        }
      },
      "renounceRole(bytes32,address)": {
        "details": "Overload {renounceRole} to track enumerable memberships"
      },
      "revokeRole(bytes32,address)": {
        "details": "Overload {revokeRole} to track enumerable memberships"
      },
      "supportsInterface(bytes4)": {
        "details": "See {IERC165-supportsInterface}."
      },
      "updateSignatureVerifier(address)": {
        "params": {
          "newSignatureVerifier": "The new verifier contract address."
        }
      },
      "updateTransferContract(address)": {
        "params": {
          "newTransferContract": "The new TransferContract contract address."
        }
      }
    },
    "version": 1
  },
  "userdoc": {
    "kind": "user",
    "methods": {
      "addLockGateway(string,address,address)": {
        "notice": "Allow the owner to set the Gateway contract for a given         RenERC20 token contract."
      },
      "addMintGateway(string,address,address)": {
        "notice": "Allow the owner to set the Gateway contract for a given         RenERC20 token contract."
      },
      "getGatewayBySymbol(string)": {
        "notice": "Deprecated in favour of getMintGatewayBySymbol."
      },
      "getGatewayByToken(address)": {
        "notice": "Deprecated in favour of getMintGatewayByToken."
      },
      "getMintGatewayBySymbol(string)": {
        "notice": "Returns the Gateway contract for the given RenERC20 token         symbol."
      },
      "getMintGatewayByToken(address)": {
        "notice": "Returns the Gateway contract for the given RenERC20 token         address."
      },
      "getRenAssetBySymbol(string)": {
        "notice": "Returns the RenERC20 address for the given token symbol."
      },
      "getTokenBySymbol(string)": {
        "notice": "Deprecated in favour of getRenAssetBySymbol."
      },
      "removeLockGateway(string)": {
        "notice": "Allows the owner to remove the Gateway contract for a given         asset contract."
      },
      "removeMintGateway(string)": {
        "notice": "Allows the owner to remove the Gateway contract for a given         RenERC20 contract."
      },
      "updateSignatureVerifier(address)": {
        "notice": "Allow the owner to update the signature verifier contract."
      },
      "updateTransferContract(address)": {
        "notice": "Allow the owner to update the TransferContract contract."
      }
    },
    "notice": "GatewayRegistry is a mapping from assets to their associated RenERC20 and Gateway contracts.",
    "version": 1
  },
  "storageLayout": {
    "storage": [
      {
        "astId": 773,
        "contract": "src/GatewayRegistry/GatewayRegistry.sol:GatewayRegistryV2",
        "label": "_initialized",
        "offset": 0,
        "slot": "0",
        "type": "t_bool"
      },
      {
        "astId": 776,
        "contract": "src/GatewayRegistry/GatewayRegistry.sol:GatewayRegistryV2",
        "label": "_initializing",
        "offset": 1,
        "slot": "0",
        "type": "t_bool"
      },
      {
        "astId": 2463,
        "contract": "src/GatewayRegistry/GatewayRegistry.sol:GatewayRegistryV2",
        "label": "__gap",
        "offset": 0,
        "slot": "1",
        "type": "t_array(t_uint256)50_storage"
      },
      {
        "astId": 2712,
        "contract": "src/GatewayRegistry/GatewayRegistry.sol:GatewayRegistryV2",
        "label": "__gap",
        "offset": 0,
        "slot": "51",
        "type": "t_array(t_uint256)50_storage"
      },
      {
        "astId": 258,
        "contract": "src/GatewayRegistry/GatewayRegistry.sol:GatewayRegistryV2",
        "label": "_roles",
        "offset": 0,
        "slot": "101",
        "type": "t_mapping(t_bytes32,t_struct(RoleData)253_storage)"
      },
      {
        "astId": 543,
        "contract": "src/GatewayRegistry/GatewayRegistry.sol:GatewayRegistryV2",
        "label": "__gap",
        "offset": 0,
        "slot": "102",
        "type": "t_array(t_uint256)49_storage"
      },
      {
        "astId": 45,
        "contract": "src/GatewayRegistry/GatewayRegistry.sol:GatewayRegistryV2",
        "label": "_roleMembers",
        "offset": 0,
        "slot": "151",
        "type": "t_mapping(t_bytes32,t_struct(AddressSet)3125_storage)"
      },
      {
        "astId": 208,
        "contract": "src/GatewayRegistry/GatewayRegistry.sol:GatewayRegistryV2",
        "label": "__gap",
        "offset": 0,
        "slot": "152",
        "type": "t_array(t_uint256)49_storage"
      },
      {
        "astId": 9239,
        "contract": "src/GatewayRegistry/GatewayRegistry.sol:GatewayRegistryV2",
        "label": "_renAssetProxyBeacon",
        "offset": 0,
        "slot": "201",
        "type": "t_contract(RenAssetProxyBeacon)9180"
      },
      {
        "astId": 9242,
        "contract": "src/GatewayRegistry/GatewayRegistry.sol:GatewayRegistryV2",
        "label": "_mintGatewayProxyBeacon",
        "offset": 0,
        "slot": "202",
        "type": "t_contract(MintGatewayProxyBeacon)9198"
      },
      {
        "astId": 9245,
        "contract": "src/GatewayRegistry/GatewayRegistry.sol:GatewayRegistryV2",
        "label": "_lockGatewayProxyBeacon",
        "offset": 0,
        "slot": "203",
        "type": "t_contract(LockGatewayProxyBeacon)9216"
      },
      {
        "astId": 7948,
        "contract": "src/GatewayRegistry/GatewayRegistry.sol:GatewayRegistryV2",
        "label": "mintGatewaySymbols",
        "offset": 0,
        "slot": "204",
        "type": "t_struct(Set)11924_storage"
      },
      {
        "astId": 7951,
        "contract": "src/GatewayRegistry/GatewayRegistry.sol:GatewayRegistryV2",
        "label": "lockGatewaySymbols",
        "offset": 0,
        "slot": "206",
        "type": "t_struct(Set)11924_storage"
      },
      {
        "astId": 7955,
        "contract": "src/GatewayRegistry/GatewayRegistry.sol:GatewayRegistryV2",
        "label": "mintSymbolByToken",
        "offset": 0,
        "slot": "208",
        "type": "t_mapping(t_address,t_string_storage)"
      },
      {
        "astId": 7960,
        "contract": "src/GatewayRegistry/GatewayRegistry.sol:GatewayRegistryV2",
        "label": "mintGatewayDetailsBySymbol",
        "offset": 0,
        "slot": "209",
        "type": "t_mapping(t_string_memory_ptr,t_struct(GatewayDetails)7945_storage)"
      },
      {
        "astId": 7964,
        "contract": "src/GatewayRegistry/GatewayRegistry.sol:GatewayRegistryV2",
        "label": "lockSymbolByToken",
        "offset": 0,
        "slot": "210",
        "type": "t_mapping(t_address,t_string_storage)"
      },
      {
        "astId": 7969,
        "contract": "src/GatewayRegistry/GatewayRegistry.sol:GatewayRegistryV2",
        "label": "lockGatewayDetailsBySymbol",
        "offset": 0,
        "slot": "211",
        "type": "t_mapping(t_string_memory_ptr,t_struct(GatewayDetails)7945_storage)"
      },
      {
        "astId": 7971,
        "contract": "src/GatewayRegistry/GatewayRegistry.sol:GatewayRegistryV2",
        "label": "_signatureVerifier",
        "offset": 0,
        "slot": "212",
        "type": "t_address"
      },
      {
        "astId": 7973,
        "contract": "src/GatewayRegistry/GatewayRegistry.sol:GatewayRegistryV2",
        "label": "_chainId",
        "offset": 0,
        "slot": "213",
        "type": "t_uint256"
      },
      {
        "astId": 7975,
        "contract": "src/GatewayRegistry/GatewayRegistry.sol:GatewayRegistryV2",
        "label": "_transferContract",
        "offset": 0,
        "slot": "214",
        "type": "t_address"
      },
      {
        "astId": 7979,
        "contract": "src/GatewayRegistry/GatewayRegistry.sol:GatewayRegistryV2",
        "label": "__gap",
        "offset": 0,
        "slot": "215",
        "type": "t_array(t_uint256)39_storage"
      }
    ],
    "types": {
      "t_address": {
        "encoding": "inplace",
        "label": "address",
        "numberOfBytes": "20"
      },
      "t_array(t_bytes32)dyn_storage": {
        "base": "t_bytes32",
        "encoding": "dynamic_array",
        "label": "bytes32[]",
        "numberOfBytes": "32"
      },
      "t_array(t_string_storage)dyn_storage": {
        "base": "t_string_storage",
        "encoding": "dynamic_array",
        "label": "string[]",
        "numberOfBytes": "32"
      },
      "t_array(t_uint256)39_storage": {
        "base": "t_uint256",
        "encoding": "inplace",
        "label": "uint256[39]",
        "numberOfBytes": "1248"
      },
      "t_array(t_uint256)49_storage": {
        "base": "t_uint256",
        "encoding": "inplace",
        "label": "uint256[49]",
        "numberOfBytes": "1568"
      },
      "t_array(t_uint256)50_storage": {
        "base": "t_uint256",
        "encoding": "inplace",
        "label": "uint256[50]",
        "numberOfBytes": "1600"
      },
      "t_bool": {
        "encoding": "inplace",
        "label": "bool",
        "numberOfBytes": "1"
      },
      "t_bytes32": {
        "encoding": "inplace",
        "label": "bytes32",
        "numberOfBytes": "32"
      },
      "t_contract(LockGatewayProxyBeacon)9216": {
        "encoding": "inplace",
        "label": "contract LockGatewayProxyBeacon",
        "numberOfBytes": "20"
      },
      "t_contract(MintGatewayProxyBeacon)9198": {
        "encoding": "inplace",
        "label": "contract MintGatewayProxyBeacon",
        "numberOfBytes": "20"
      },
      "t_contract(RenAssetProxyBeacon)9180": {
        "encoding": "inplace",
        "label": "contract RenAssetProxyBeacon",
        "numberOfBytes": "20"
      },
      "t_mapping(t_address,t_bool)": {
        "encoding": "mapping",
        "key": "t_address",
        "label": "mapping(address => bool)",
        "numberOfBytes": "32",
        "value": "t_bool"
      },
      "t_mapping(t_address,t_string_storage)": {
        "encoding": "mapping",
        "key": "t_address",
        "label": "mapping(address => string)",
        "numberOfBytes": "32",
        "value": "t_string_storage"
      },
      "t_mapping(t_bytes32,t_struct(AddressSet)3125_storage)": {
        "encoding": "mapping",
        "key": "t_bytes32",
        "label": "mapping(bytes32 => struct EnumerableSetUpgradeable.AddressSet)",
        "numberOfBytes": "32",
        "value": "t_struct(AddressSet)3125_storage"
      },
      "t_mapping(t_bytes32,t_struct(RoleData)253_storage)": {
        "encoding": "mapping",
        "key": "t_bytes32",
        "label": "mapping(bytes32 => struct AccessControlUpgradeable.RoleData)",
        "numberOfBytes": "32",
        "value": "t_struct(RoleData)253_storage"
      },
      "t_mapping(t_bytes32,t_uint256)": {
        "encoding": "mapping",
        "key": "t_bytes32",
        "label": "mapping(bytes32 => uint256)",
        "numberOfBytes": "32",
        "value": "t_uint256"
      },
      "t_mapping(t_string_memory_ptr,t_struct(GatewayDetails)7945_storage)": {
        "encoding": "mapping",
        "key": "t_string_memory_ptr",
        "label": "mapping(string => struct GatewayRegistryStateV2.GatewayDetails)",
        "numberOfBytes": "32",
        "value": "t_struct(GatewayDetails)7945_storage"
      },
      "t_mapping(t_string_memory_ptr,t_uint256)": {
        "encoding": "mapping",
        "key": "t_string_memory_ptr",
        "label": "mapping(string => uint256)",
        "numberOfBytes": "32",
        "value": "t_uint256"
      },
      "t_string_memory_ptr": {
        "encoding": "bytes",
        "label": "string",
        "numberOfBytes": "32"
      },
      "t_string_storage": {
        "encoding": "bytes",
        "label": "string",
        "numberOfBytes": "32"
      },
      "t_struct(AddressSet)3125_storage": {
        "encoding": "inplace",
        "label": "struct EnumerableSetUpgradeable.AddressSet",
        "members": [
          {
            "astId": 3124,
            "contract": "src/GatewayRegistry/GatewayRegistry.sol:GatewayRegistryV2",
            "label": "_inner",
            "offset": 0,
            "slot": "0",
            "type": "t_struct(Set)2824_storage"
          }
        ],
        "numberOfBytes": "64"
      },
      "t_struct(GatewayDetails)7945_storage": {
        "encoding": "inplace",
        "label": "struct GatewayRegistryStateV2.GatewayDetails",
        "members": [
          {
            "astId": 7942,
            "contract": "src/GatewayRegistry/GatewayRegistry.sol:GatewayRegistryV2",
            "label": "gateway",
            "offset": 0,
            "slot": "0",
            "type": "t_address"
          },
          {
            "astId": 7944,
            "contract": "src/GatewayRegistry/GatewayRegistry.sol:GatewayRegistryV2",
            "label": "token",
            "offset": 0,
            "slot": "1",
            "type": "t_address"
          }
        ],
        "numberOfBytes": "64"
      },
      "t_struct(RoleData)253_storage": {
        "encoding": "inplace",
        "label": "struct AccessControlUpgradeable.RoleData",
        "members": [
          {
            "astId": 250,
            "contract": "src/GatewayRegistry/GatewayRegistry.sol:GatewayRegistryV2",
            "label": "members",
            "offset": 0,
            "slot": "0",
            "type": "t_mapping(t_address,t_bool)"
          },
          {
            "astId": 252,
            "contract": "src/GatewayRegistry/GatewayRegistry.sol:GatewayRegistryV2",
            "label": "adminRole",
            "offset": 0,
            "slot": "1",
            "type": "t_bytes32"
          }
        ],
        "numberOfBytes": "64"
      },
      "t_struct(Set)11924_storage": {
        "encoding": "inplace",
        "label": "struct StringSet.Set",
        "members": [
          {
            "astId": 11919,
            "contract": "src/GatewayRegistry/GatewayRegistry.sol:GatewayRegistryV2",
            "label": "_values",
            "offset": 0,
            "slot": "0",
            "type": "t_array(t_string_storage)dyn_storage"
          },
          {
            "astId": 11923,
            "contract": "src/GatewayRegistry/GatewayRegistry.sol:GatewayRegistryV2",
            "label": "_indexes",
            "offset": 0,
            "slot": "1",
            "type": "t_mapping(t_string_memory_ptr,t_uint256)"
          }
        ],
        "numberOfBytes": "64"
      },
      "t_struct(Set)2824_storage": {
        "encoding": "inplace",
        "label": "struct EnumerableSetUpgradeable.Set",
        "members": [
          {
            "astId": 2819,
            "contract": "src/GatewayRegistry/GatewayRegistry.sol:GatewayRegistryV2",
            "label": "_values",
            "offset": 0,
            "slot": "0",
            "type": "t_array(t_bytes32)dyn_storage"
          },
          {
            "astId": 2823,
            "contract": "src/GatewayRegistry/GatewayRegistry.sol:GatewayRegistryV2",
            "label": "_indexes",
            "offset": 0,
            "slot": "1",
            "type": "t_mapping(t_bytes32,t_uint256)"
          }
        ],
        "numberOfBytes": "64"
      },
      "t_uint256": {
        "encoding": "inplace",
        "label": "uint256",
        "numberOfBytes": "32"
      }
    }
  }
}