{
  "address": "0x0FCE7070F8E8d42ccC31F69f420d7167dF5be015",
  "abi": [
    {
      "anonymous": false,
      "inputs": [
        {
          "indexed": true,
          "internalType": "address",
          "name": "owner",
          "type": "address"
        },
        {
          "indexed": true,
          "internalType": "address",
          "name": "spender",
          "type": "address"
        },
        {
          "indexed": false,
          "internalType": "uint256",
          "name": "value",
          "type": "uint256"
        }
      ],
      "name": "Approval",
      "type": "event"
    },
    {
      "anonymous": false,
      "inputs": [
        {
          "indexed": true,
          "internalType": "address",
          "name": "previousOwner",
          "type": "address"
        },
        {
          "indexed": true,
          "internalType": "address",
          "name": "newOwner",
          "type": "address"
        }
      ],
      "name": "OwnershipTransferred",
      "type": "event"
    },
    {
      "anonymous": false,
      "inputs": [
        {
          "indexed": true,
          "internalType": "address",
          "name": "from",
          "type": "address"
        },
        {
          "indexed": true,
          "internalType": "address",
          "name": "to",
          "type": "address"
        },
        {
          "indexed": false,
          "internalType": "uint256",
          "name": "value",
          "type": "uint256"
        }
      ],
      "name": "Transfer",
      "type": "event"
    },
    {
      "inputs": [],
      "name": "DOMAIN_SEPARATOR",
      "outputs": [
        {
          "internalType": "bytes32",
          "name": "",
          "type": "bytes32"
        }
      ],
      "stateMutability": "view",
      "type": "function"
    },
    {
      "inputs": [],
      "name": "NAME",
      "outputs": [
        {
          "internalType": "string",
          "name": "",
          "type": "string"
        }
      ],
      "stateMutability": "view",
      "type": "function"
    },
    {
      "inputs": [],
      "name": "PERMIT_TYPEHASH",
      "outputs": [
        {
          "internalType": "bytes32",
          "name": "",
          "type": "bytes32"
        }
      ],
      "stateMutability": "view",
      "type": "function"
    },
    {
      "inputs": [
        {
          "internalType": "uint256",
          "name": "chainId",
          "type": "uint256"
        },
        {
          "internalType": "string",
          "name": "version_",
          "type": "string"
        },
        {
          "internalType": "string",
          "name": "name_",
          "type": "string"
        },
        {
          "internalType": "string",
          "name": "symbol_",
          "type": "string"
        }
      ],
      "name": "__ERC20WithPermit_init",
      "outputs": [],
      "stateMutability": "nonpayable",
      "type": "function"
    },
    {
      "inputs": [
        {
          "internalType": "uint256",
          "name": "chainId",
          "type": "uint256"
        },
        {
          "internalType": "string",
          "name": "version_",
          "type": "string"
        },
        {
          "internalType": "string",
          "name": "name_",
          "type": "string"
        },
        {
          "internalType": "string",
          "name": "symbol_",
          "type": "string"
        },
        {
          "internalType": "uint8",
          "name": "decimals_",
          "type": "uint8"
        },
        {
          "internalType": "address",
          "name": "contractOwner",
          "type": "address"
        }
      ],
      "name": "__RenAsset_init",
      "outputs": [],
      "stateMutability": "nonpayable",
      "type": "function"
    },
    {
      "inputs": [
        {
          "internalType": "address",
          "name": "owner",
          "type": "address"
        },
        {
          "internalType": "address",
          "name": "spender",
          "type": "address"
        }
      ],
      "name": "allowance",
      "outputs": [
        {
          "internalType": "uint256",
          "name": "",
          "type": "uint256"
        }
      ],
      "stateMutability": "view",
      "type": "function"
    },
    {
      "inputs": [
        {
          "internalType": "address",
          "name": "spender",
          "type": "address"
        },
        {
          "internalType": "uint256",
          "name": "amount",
          "type": "uint256"
        }
      ],
      "name": "approve",
      "outputs": [
        {
          "internalType": "bool",
          "name": "",
          "type": "bool"
        }
      ],
      "stateMutability": "nonpayable",
      "type": "function"
    },
    {
      "inputs": [
        {
          "internalType": "address",
          "name": "account",
          "type": "address"
        }
      ],
      "name": "balanceOf",
      "outputs": [
        {
          "internalType": "uint256",
          "name": "",
          "type": "uint256"
        }
      ],
      "stateMutability": "view",
      "type": "function"
    },
    {
      "inputs": [
        {
          "internalType": "address",
          "name": "from",
          "type": "address"
        },
        {
          "internalType": "uint256",
          "name": "amount",
          "type": "uint256"
        }
      ],
      "name": "burn",
      "outputs": [],
      "stateMutability": "nonpayable",
      "type": "function"
    },
    {
      "inputs": [],
      "name": "decimals",
      "outputs": [
        {
          "internalType": "uint8",
          "name": "",
          "type": "uint8"
        }
      ],
      "stateMutability": "view",
      "type": "function"
    },
    {
      "inputs": [
        {
          "internalType": "address",
          "name": "spender",
          "type": "address"
        },
        {
          "internalType": "uint256",
          "name": "subtractedValue",
          "type": "uint256"
        }
      ],
      "name": "decreaseAllowance",
      "outputs": [
        {
          "internalType": "bool",
          "name": "",
          "type": "bool"
        }
      ],
      "stateMutability": "nonpayable",
      "type": "function"
    },
    {
      "inputs": [
        {
          "internalType": "address",
          "name": "spender",
          "type": "address"
        },
        {
          "internalType": "uint256",
          "name": "addedValue",
          "type": "uint256"
        }
      ],
      "name": "increaseAllowance",
      "outputs": [
        {
          "internalType": "bool",
          "name": "",
          "type": "bool"
        }
      ],
      "stateMutability": "nonpayable",
      "type": "function"
    },
    {
      "inputs": [
        {
          "internalType": "address",
          "name": "to",
          "type": "address"
        },
        {
          "internalType": "uint256",
          "name": "amount",
          "type": "uint256"
        }
      ],
      "name": "mint",
      "outputs": [],
      "stateMutability": "nonpayable",
      "type": "function"
    },
    {
      "inputs": [],
      "name": "name",
      "outputs": [
        {
          "internalType": "string",
          "name": "",
          "type": "string"
        }
      ],
      "stateMutability": "view",
      "type": "function"
    },
    {
      "inputs": [
        {
          "internalType": "address",
          "name": "holder",
          "type": "address"
        }
      ],
      "name": "nonces",
      "outputs": [
        {
          "internalType": "uint256",
          "name": "",
          "type": "uint256"
        }
      ],
      "stateMutability": "view",
      "type": "function"
    },
    {
      "inputs": [],
      "name": "owner",
      "outputs": [
        {
          "internalType": "address",
          "name": "",
          "type": "address"
        }
      ],
      "stateMutability": "view",
      "type": "function"
    },
    {
      "inputs": [
        {
          "internalType": "address",
          "name": "holder",
          "type": "address"
        },
        {
          "internalType": "address",
          "name": "spender",
          "type": "address"
        },
        {
          "internalType": "uint256",
          "name": "nonce",
          "type": "uint256"
        },
        {
          "internalType": "uint256",
          "name": "expiry",
          "type": "uint256"
        },
        {
          "internalType": "bool",
          "name": "allowed",
          "type": "bool"
        },
        {
          "internalType": "uint8",
          "name": "v",
          "type": "uint8"
        },
        {
          "internalType": "bytes32",
          "name": "r",
          "type": "bytes32"
        },
        {
          "internalType": "bytes32",
          "name": "s",
          "type": "bytes32"
        }
      ],
      "name": "permit",
      "outputs": [],
      "stateMutability": "nonpayable",
      "type": "function"
    },
    {
      "inputs": [],
      "name": "renounceOwnership",
      "outputs": [],
      "stateMutability": "nonpayable",
      "type": "function"
    },
    {
      "inputs": [],
      "name": "symbol",
      "outputs": [
        {
          "internalType": "string",
          "name": "",
          "type": "string"
        }
      ],
      "stateMutability": "view",
      "type": "function"
    },
    {
      "inputs": [],
      "name": "totalSupply",
      "outputs": [
        {
          "internalType": "uint256",
          "name": "",
          "type": "uint256"
        }
      ],
      "stateMutability": "view",
      "type": "function"
    },
    {
      "inputs": [
        {
          "internalType": "address",
          "name": "recipient",
          "type": "address"
        },
        {
          "internalType": "uint256",
          "name": "amount",
          "type": "uint256"
        }
      ],
      "name": "transfer",
      "outputs": [
        {
          "internalType": "bool",
          "name": "",
          "type": "bool"
        }
      ],
      "stateMutability": "nonpayable",
      "type": "function"
    },
    {
      "inputs": [
        {
          "internalType": "address",
          "name": "sender",
          "type": "address"
        },
        {
          "internalType": "address",
          "name": "recipient",
          "type": "address"
        },
        {
          "internalType": "uint256",
          "name": "amount",
          "type": "uint256"
        }
      ],
      "name": "transferFrom",
      "outputs": [
        {
          "internalType": "bool",
          "name": "",
          "type": "bool"
        }
      ],
      "stateMutability": "nonpayable",
      "type": "function"
    },
    {
      "inputs": [
        {
          "internalType": "address",
          "name": "newOwner",
          "type": "address"
        }
      ],
      "name": "transferOwnership",
      "outputs": [],
      "stateMutability": "nonpayable",
      "type": "function"
    },
    {
      "inputs": [],
      "name": "version",
      "outputs": [
        {
          "internalType": "string",
          "name": "",
          "type": "string"
        }
      ],
      "stateMutability": "view",
      "type": "function"
    }
  ],
  "transactionHash": "0x2602da11cf5ce77678696016eab82a6d144d84eceaf984f14525220a3bb2b1ce",
  "args": [],
  "solcInputHash": "5b6b2689ed9e6b3172aee736600c5c8e",
  "bytecode": "0x608060405234801561001057600080fd5b50611db2806100206000396000f3fe608060405234801561001057600080fd5b50600436106101585760003560e01c8063715018a6116100c3578063a2f907c11161007c578063a2f907c1146102ed578063a3f4df7e14610300578063a457c2d714610327578063a9059cbb1461033a578063dd62ed3e1461034d578063f2fde38b1461038657600080fd5b8063715018a6146102735780637ecebe001461027b5780638da5cb5b146102a45780638fcbaf0c146102bf57806395d89b41146102d25780639dc29fac146102da57600080fd5b80633644e515116101155780633644e515146101ff578063395093511461020757806340c10f191461021a5780634c0db74e1461022f57806354fd4d501461024257806370a082311461024a57600080fd5b806306fdde031461015d578063095ea7b31461017b57806318160ddd1461019e57806323b872dd146101b057806330adf81f146101c3578063313ce567146101ea575b600080fd5b610165610399565b6040516101729190611baa565b60405180910390f35b61018e610189366004611a08565b61042b565b6040519015158152602001610172565b6067545b604051908152602001610172565b61018e6101be36600461194a565b610441565b6101a27fea2aa0a1be11a07ed86d755c93467f4f82362b452371d1ba94d1715123511acb81565b60c95460405160ff9091168152602001610172565b6099546101a2565b61018e610215366004611a08565b610488565b61022d610228366004611a08565b6104c4565b005b61022d61023d366004611a32565b6104fc565b61016561067a565b6101a26102583660046118fc565b6001600160a01b031660009081526065602052604090205490565b61022d610689565b6101a26102893660046118fc565b6001600160a01b031660009081526097602052604090205490565b6033546040516001600160a01b039091168152602001610172565b61022d6102cd366004611986565b6106bf565b6101656109ba565b61022d6102e8366004611a08565b6109c9565b61022d6102fb366004611ad6565b6109fd565b6101656040518060400160405280600881526020016714995b905cdcd95d60c21b81525081565b61018e610335366004611a08565b610ccb565b61018e610348366004611a08565b610d64565b6101a261035b366004611917565b6001600160a01b03918216600090815260666020908152604080832093909416825291909152205490565b61022d6103943660046118fc565b610da0565b6060606880546103a890611cfa565b80601f01602080910402602001604051908101604052809291908181526020018280546103d490611cfa565b80156104215780601f106103f657610100808354040283529160200191610421565b820191906000526020600020905b81548152906001019060200180831161040457829003601f168201915b5050505050905090565b6000610438338484610e3b565b50600192915050565b60006001600160a01b0383163014156104755760405162461bcd60e51b815260040161046c90611c82565b60405180910390fd5b610480848484610f5f565b949350505050565b3360008181526066602090815260408083206001600160a01b038716845290915281205490916104389185906104bf908690611ccb565b610e3b565b6033546001600160a01b031633146104ee5760405162461bcd60e51b815260040161046c90611c4d565b6104f88282611009565b5050565b600054610100900460ff1680610515575060005460ff16155b6105315760405162461bcd60e51b815260040161046c90611bff565b600054610100900460ff16158015610553576000805461ffff19166101011790555b6105c685858080601f01602080910402602001604051908101604052809392919081815260200183838082843760009201919091525050604080516020601f890181900481028201810190925287815292508791508690819084018382808284376000920191909152506110e892505050565b6105d260988888611779565b507f8b73c3c69bb8fe3d512ecc4cf759cc79239f7b179b0ffacaa9a75d522b39400f6105fc610399565b805190602001208888604051610613929190611b9a565b6040805191829003822060208301949094528101919091526060810191909152608081018990523060a082015260c00160408051601f1981840301815291905280516020909101206099558015610670576000805461ff00191690555b5050505050505050565b6060609880546103a890611cfa565b6033546001600160a01b031633146106b35760405162461bcd60e51b815260040161046c90611c4d565b6106bd6000611168565b565b60006106ca60995490565b604080517fea2aa0a1be11a07ed86d755c93467f4f82362b452371d1ba94d1715123511acb60208201526001600160a01b03808d1692820192909252908a1660608201526080810189905260a0810188905286151560c082015260e0016040516020818303038152906040528051906020012060405160200161076492919061190160f01b81526002810192909252602282015260420190565b60408051601f19818403018152919052805160209091012090506001600160a01b0389166107e35760405162461bcd60e51b815260206004820152602660248201527f455243323057697468526174653a2061646472657373206d757374206e6f742060448201526506265203078360d41b606482015260840161046c565b60408051600081526020810180835283905260ff861691810191909152606081018490526080810183905260019060a0016020604051602081039080840390855afa158015610836573d6000803e3d6000fd5b505050602060405103516001600160a01b0316896001600160a01b0316146108a05760405162461bcd60e51b815260206004820181905260248201527f455243323057697468526174653a20696e76616c6964207369676e6174757265604482015260640161046c565b8515806108ad5750854211155b6109035760405162461bcd60e51b815260206004820152602160248201527f455243323057697468526174653a207065726d697420686173206578706972656044820152601960fa1b606482015260840161046c565b6001600160a01b038916600090815260976020526040902054871461096a5760405162461bcd60e51b815260206004820152601c60248201527f455243323057697468526174653a20696e76616c6964206e6f6e636500000000604482015260640161046c565b610975876001611ccb565b6001600160a01b038a166000908152609760205260408120919091558561099d5760006109a1565b6000195b90506109ae8a8a83610e3b565b50505050505050505050565b6060606980546103a890611cfa565b6033546001600160a01b031633146109f35760405162461bcd60e51b815260040161046c90611c4d565b6104f882826111ba565b600054610100900460ff1680610a16575060005460ff16155b610a325760405162461bcd60e51b815260040161046c90611bff565b600054610100900460ff16158015610a54576000805461ffff19166101011790555b610a9389898080601f01602080910402602001604051908101604052809392919081815260200183838082843760009201919091525061130892505050565b610adf5760405162461bcd60e51b815260206004820152601960248201527f52656e41737365743a20696e76616c69642076657273696f6e00000000000000604482015260640161046c565b610b1e87878080601f01602080910402602001604051908101604052809392919081815260200183838082843760009201919091525061130892505050565b610b635760405162461bcd60e51b815260206004820152601660248201527552656e41737365743a20696e76616c6964206e616d6560501b604482015260640161046c565b610ba285858080601f01602080910402602001604051908101604052809392919081815260200183838082843760009201919091525061130892505050565b610bee5760405162461bcd60e51b815260206004820152601860248201527f52656e41737365743a20696e76616c69642073796d626f6c0000000000000000604482015260640161046c565b610bf661132a565b610c6987878080601f01602080910402602001604051908101604052809392919081815260200183838082843760009201919091525050604080516020601f8b0181900481028201810190925289815292508991508890819084018382808284376000920191909152506110e892505050565b610c788a8a8a8a8a8a8a6104fc565b60c9805460ff191660ff85161790556033546001600160a01b0383811691166001600160a01b031614610cae57610cae82610da0565b80156109ae576000805461ff001916905550505050505050505050565b3360009081526066602090815260408083206001600160a01b038616845290915281205482811015610d4d5760405162461bcd60e51b815260206004820152602560248201527f45524332303a2064656372656173656420616c6c6f77616e63652062656c6f77604482015264207a65726f60d81b606482015260840161046c565b610d5a3385858403610e3b565b5060019392505050565b60006001600160a01b038316301415610d8f5760405162461bcd60e51b815260040161046c90611c82565b610d9983836113a5565b9392505050565b6033546001600160a01b03163314610dca5760405162461bcd60e51b815260040161046c90611c4d565b6001600160a01b038116610e2f5760405162461bcd60e51b815260206004820152602660248201527f4f776e61626c653a206e6577206f776e657220697320746865207a65726f206160448201526564647265737360d01b606482015260840161046c565b610e3881611168565b50565b6001600160a01b038316610e9d5760405162461bcd60e51b8152602060048201526024808201527f45524332303a20617070726f76652066726f6d20746865207a65726f206164646044820152637265737360e01b606482015260840161046c565b6001600160a01b038216610efe5760405162461bcd60e51b815260206004820152602260248201527f45524332303a20617070726f766520746f20746865207a65726f206164647265604482015261737360f01b606482015260840161046c565b6001600160a01b0383811660008181526066602090815260408083209487168084529482529182902085905590518481527f8c5be1e5ebec7d5bd14f71427d1e84f3dd0314c0f7b2291e5b200ac8c7c3b925910160405180910390a3505050565b6000610f6c8484846113ae565b6001600160a01b038416600090815260666020908152604080832033845290915290205482811015610ff15760405162461bcd60e51b815260206004820152602860248201527f45524332303a207472616e7366657220616d6f756e74206578636565647320616044820152676c6c6f77616e636560c01b606482015260840161046c565b610ffe8533858403610e3b565b506001949350505050565b6001600160a01b03821661105f5760405162461bcd60e51b815260206004820152601f60248201527f45524332303a206d696e7420746f20746865207a65726f206164647265737300604482015260640161046c565b80606760008282546110719190611ccb565b90915550506001600160a01b0382166000908152606560205260408120805483929061109e908490611ccb565b90915550506040518181526001600160a01b038316906000907fddf252ad1be2c89b69c2b068fc378daa952ba7f163c4a11628f55a4df523b3ef9060200160405180910390a35050565b600054610100900460ff1680611101575060005460ff16155b61111d5760405162461bcd60e51b815260040161046c90611bff565b600054610100900460ff1615801561113f576000805461ffff19166101011790555b61114761157d565b61115183836115e7565b8015611163576000805461ff00191690555b505050565b603380546001600160a01b038381166001600160a01b0319831681179093556040519116919082907f8be0079c531659141344cd1fd0a4f28419497f9722a3daafe3b4186f6b6457e090600090a35050565b6001600160a01b03821661121a5760405162461bcd60e51b815260206004820152602160248201527f45524332303a206275726e2066726f6d20746865207a65726f206164647265736044820152607360f81b606482015260840161046c565b6001600160a01b0382166000908152606560205260409020548181101561128e5760405162461bcd60e51b815260206004820152602260248201527f45524332303a206275726e20616d6f756e7420657863656564732062616c616e604482015261636560f01b606482015260840161046c565b6001600160a01b03831660009081526065602052604081208383039055606780548492906112bd908490611ce3565b90915550506040518281526000906001600160a01b038516907fddf252ad1be2c89b69c2b068fc378daa952ba7f163c4a11628f55a4df523b3ef9060200160405180910390a3505050565b60006113148251151590565b801561132457506113248261167c565b92915050565b600054610100900460ff1680611343575060005460ff16155b61135f5760405162461bcd60e51b815260040161046c90611bff565b600054610100900460ff16158015611381576000805461ffff19166101011790555b61138961157d565b611391611719565b8015610e38576000805461ff001916905550565b60006104383384845b6001600160a01b0383166114125760405162461bcd60e51b815260206004820152602560248201527f45524332303a207472616e736665722066726f6d20746865207a65726f206164604482015264647265737360d81b606482015260840161046c565b6001600160a01b0382166114745760405162461bcd60e51b815260206004820152602360248201527f45524332303a207472616e7366657220746f20746865207a65726f206164647260448201526265737360e81b606482015260840161046c565b6001600160a01b038316600090815260656020526040902054818110156114ec5760405162461bcd60e51b815260206004820152602660248201527f45524332303a207472616e7366657220616d6f756e7420657863656564732062604482015265616c616e636560d01b606482015260840161046c565b6001600160a01b03808516600090815260656020526040808220858503905591851681529081208054849290611523908490611ccb565b92505081905550826001600160a01b0316846001600160a01b03167fddf252ad1be2c89b69c2b068fc378daa952ba7f163c4a11628f55a4df523b3ef8460405161156f91815260200190565b60405180910390a350505050565b600054610100900460ff1680611596575060005460ff16155b6115b25760405162461bcd60e51b815260040161046c90611bff565b600054610100900460ff16158015611391576000805461ffff19166101011790558015610e38576000805461ff001916905550565b600054610100900460ff1680611600575060005460ff16155b61161c5760405162461bcd60e51b815260040161046c90611bff565b600054610100900460ff1615801561163e576000805461ffff19166101011790555b82516116519060689060208601906117fd565b5081516116659060699060208501906117fd565b508015611163576000805461ff0019169055505050565b6000805b825181101561043857600083828151811061169d5761169d611d66565b016020015160f81c9050604181108015906116bc5750605a8160ff1611155b806116da575060618160ff16101580156116da5750607a8160ff1611155b806116f8575060308160ff16101580156116f8575060398160ff1611155b611706575060009392505050565b508061171181611d35565b915050611680565b600054610100900460ff1680611732575060005460ff16155b61174e5760405162461bcd60e51b815260040161046c90611bff565b600054610100900460ff16158015611770576000805461ffff19166101011790555b61139133611168565b82805461178590611cfa565b90600052602060002090601f0160209004810192826117a757600085556117ed565b82601f106117c05782800160ff198235161785556117ed565b828001600101855582156117ed579182015b828111156117ed5782358255916020019190600101906117d2565b506117f9929150611871565b5090565b82805461180990611cfa565b90600052602060002090601f01602090048101928261182b57600085556117ed565b82601f1061184457805160ff19168380011785556117ed565b828001600101855582156117ed579182015b828111156117ed578251825591602001919060010190611856565b5b808211156117f95760008155600101611872565b80356001600160a01b038116811461189d57600080fd5b919050565b60008083601f8401126118b457600080fd5b50813567ffffffffffffffff8111156118cc57600080fd5b6020830191508360208285010111156118e457600080fd5b9250929050565b803560ff8116811461189d57600080fd5b60006020828403121561190e57600080fd5b610d9982611886565b6000806040838503121561192a57600080fd5b61193383611886565b915061194160208401611886565b90509250929050565b60008060006060848603121561195f57600080fd5b61196884611886565b925061197660208501611886565b9150604084013590509250925092565b600080600080600080600080610100898b0312156119a357600080fd5b6119ac89611886565b97506119ba60208a01611886565b96506040890135955060608901359450608089013580151581146119dd57600080fd5b93506119eb60a08a016118eb565b925060c0890135915060e089013590509295985092959890939650565b60008060408385031215611a1b57600080fd5b611a2483611886565b946020939093013593505050565b60008060008060008060006080888a031215611a4d57600080fd5b87359650602088013567ffffffffffffffff80821115611a6c57600080fd5b611a788b838c016118a2565b909850965060408a0135915080821115611a9157600080fd5b611a9d8b838c016118a2565b909650945060608a0135915080821115611ab657600080fd5b50611ac38a828b016118a2565b989b979a50959850939692959293505050565b600080600080600080600080600060c08a8c031215611af457600080fd5b8935985060208a013567ffffffffffffffff80821115611b1357600080fd5b611b1f8d838e016118a2565b909a50985060408c0135915080821115611b3857600080fd5b611b448d838e016118a2565b909850965060608c0135915080821115611b5d57600080fd5b50611b6a8c828d016118a2565b9095509350611b7d905060808b016118eb565b9150611b8b60a08b01611886565b90509295985092959850929598565b8183823760009101908152919050565b600060208083528351808285015260005b81811015611bd757858101830151858201604001528201611bbb565b81811115611be9576000604083870101525b50601f01601f1916929092016040019392505050565b6020808252602e908201527f496e697469616c697a61626c653a20636f6e747261637420697320616c72656160408201526d191e481a5b9a5d1a585b1a5e995960921b606082015260800190565b6020808252818101527f4f776e61626c653a2063616c6c6572206973206e6f7420746865206f776e6572604082015260600190565b60208082526029908201527f52656e45524332303a2063616e2774207472616e7366657220746f20746f6b656040820152686e206164647265737360b81b606082015260800190565b60008219821115611cde57611cde611d50565b500190565b600082821015611cf557611cf5611d50565b500390565b600181811c90821680611d0e57607f821691505b60208210811415611d2f57634e487b7160e01b600052602260045260246000fd5b50919050565b6000600019821415611d4957611d49611d50565b5060010190565b634e487b7160e01b600052601160045260246000fd5b634e487b7160e01b600052603260045260246000fdfea2646970667358221220f4462b69864ef3c73884c6e5b80d9a8f8dbe25476220814ccce12c8234a5572e64736f6c63430008070033",
  "devdoc": {
    "kind": "dev",
    "methods": {
      "allowance(address,address)": {
        "details": "See {IERC20-allowance}."
      },
      "approve(address,uint256)": {
        "details": "See {IERC20-approve}. Requirements: - `spender` cannot be the zero address."
      },
      "balanceOf(address)": {
        "details": "See {IERC20-balanceOf}."
      },
      "decimals()": {
        "details": "Returns the number of decimals used to get its user representation. For example, if `decimals` equals `2`, a balance of `505` tokens should be displayed to a user as `5.05` (`505 / 10 ** 2`). Tokens usually opt for a value of 18, imitating the relationship between Ether and Wei. This is the value {ERC20} uses, unless this function is overridden; NOTE: This information is only used for _display_ purposes: it in no way affects any of the arithmetic of the contract, including {IERC20-balanceOf} and {IERC20-transfer}."
      },
      "decreaseAllowance(address,uint256)": {
        "details": "Atomically decreases the allowance granted to `spender` by the caller. This is an alternative to {approve} that can be used as a mitigation for problems described in {IERC20-approve}. Emits an {Approval} event indicating the updated allowance. Requirements: - `spender` cannot be the zero address. - `spender` must have allowance for the caller of at least `subtractedValue`."
      },
      "increaseAllowance(address,uint256)": {
        "details": "Atomically increases the allowance granted to `spender` by the caller. This is an alternative to {approve} that can be used as a mitigation for problems described in {IERC20-approve}. Emits an {Approval} event indicating the updated allowance. Requirements: - `spender` cannot be the zero address."
      },
      "name()": {
        "details": "Returns the name of the token."
      },
      "owner()": {
        "details": "Returns the address of the current owner."
      },
      "renounceOwnership()": {
        "details": "Leaves the contract without owner. It will not be possible to call `onlyOwner` functions anymore. Can only be called by the current owner. NOTE: Renouncing ownership will leave the contract without an owner, thereby removing any functionality that is only available to the owner."
      },
      "symbol()": {
        "details": "Returns the symbol of the token, usually a shorter version of the name."
      },
      "totalSupply()": {
        "details": "See {IERC20-totalSupply}."
      },
      "transfer(address,uint256)": {
        "details": "See {IERC20-transfer}. Requirements: - `recipient` cannot be the zero address. - the caller must have a balance of at least `amount`."
      },
      "transferFrom(address,address,uint256)": {
        "details": "See {IERC20-transferFrom}. Emits an {Approval} event indicating the updated allowance. This is not required by the EIP. See the note at the beginning of {ERC20}. Requirements: - `sender` and `recipient` cannot be the zero address. - `sender` must have a balance of at least `amount`. - the caller must have allowance for ``sender``'s tokens of at least `amount`."
      },
      "transferOwnership(address)": {
        "details": "Transfers ownership of the contract to a new account (`newOwner`). Can only be called by the current owner."
      }
    },
    "version": 1
  },
  "userdoc": {
    "kind": "user",
    "methods": {
      "burn(address,uint256)": {
        "notice": "burn can only be called by the tokens' associated Gateway contract. See Gateway's burn functions instead."
      },
      "mint(address,uint256)": {
        "notice": "mint can only be called by the tokens' associated Gateway contract. See Gateway's mint function instead."
      }
    },
    "notice": "RenAsset represents a digital asset that has been bridged by RenVM. It exposes mint and burn functions that can only be called by it's associated MintGateway contract.",
    "version": 1
  },
  "storageLayout": {
    "storage": [
      {
        "astId": 773,
        "contract": "src/RenAsset/RenAsset.sol:RenAssetV2",
        "label": "_initialized",
        "offset": 0,
        "slot": "0",
        "type": "t_bool"
      },
      {
        "astId": 776,
        "contract": "src/RenAsset/RenAsset.sol:RenAssetV2",
        "label": "_initializing",
        "offset": 1,
        "slot": "0",
        "type": "t_bool"
      },
      {
        "astId": 2463,
        "contract": "src/RenAsset/RenAsset.sol:RenAssetV2",
        "label": "__gap",
        "offset": 0,
        "slot": "1",
        "type": "t_array(t_uint256)50_storage"
      },
      {
        "astId": 653,
        "contract": "src/RenAsset/RenAsset.sol:RenAssetV2",
        "label": "_owner",
        "offset": 0,
        "slot": "51",
        "type": "t_address"
      },
      {
        "astId": 766,
        "contract": "src/RenAsset/RenAsset.sol:RenAssetV2",
        "label": "__gap",
        "offset": 0,
        "slot": "52",
        "type": "t_array(t_uint256)49_storage"
      },
      {
        "astId": 945,
        "contract": "src/RenAsset/RenAsset.sol:RenAssetV2",
        "label": "_balances",
        "offset": 0,
        "slot": "101",
        "type": "t_mapping(t_address,t_uint256)"
      },
      {
        "astId": 951,
        "contract": "src/RenAsset/RenAsset.sol:RenAssetV2",
        "label": "_allowances",
        "offset": 0,
        "slot": "102",
        "type": "t_mapping(t_address,t_mapping(t_address,t_uint256))"
      },
      {
        "astId": 953,
        "contract": "src/RenAsset/RenAsset.sol:RenAssetV2",
        "label": "_totalSupply",
        "offset": 0,
        "slot": "103",
        "type": "t_uint256"
      },
      {
        "astId": 955,
        "contract": "src/RenAsset/RenAsset.sol:RenAssetV2",
        "label": "_name",
        "offset": 0,
        "slot": "104",
        "type": "t_string_storage"
      },
      {
        "astId": 957,
        "contract": "src/RenAsset/RenAsset.sol:RenAssetV2",
        "label": "_symbol",
        "offset": 0,
        "slot": "105",
        "type": "t_string_storage"
      },
      {
        "astId": 1498,
        "contract": "src/RenAsset/RenAsset.sol:RenAssetV2",
        "label": "__gap",
        "offset": 0,
        "slot": "106",
        "type": "t_array(t_uint256)45_storage"
      },
      {
        "astId": 11267,
        "contract": "src/RenAsset/RenAsset.sol:RenAssetV2",
        "label": "_nonces",
        "offset": 0,
        "slot": "151",
        "type": "t_mapping(t_address,t_uint256)"
      },
      {
        "astId": 11269,
        "contract": "src/RenAsset/RenAsset.sol:RenAssetV2",
        "label": "_version",
        "offset": 0,
        "slot": "152",
        "type": "t_string_storage"
      },
      {
        "astId": 11271,
        "contract": "src/RenAsset/RenAsset.sol:RenAssetV2",
        "label": "_domainSeparator",
        "offset": 0,
        "slot": "153",
        "type": "t_bytes32"
      },
      {
        "astId": 11275,
        "contract": "src/RenAsset/RenAsset.sol:RenAssetV2",
        "label": "__gap",
        "offset": 0,
        "slot": "154",
        "type": "t_array(t_uint256)47_storage"
      },
      {
        "astId": 11498,
        "contract": "src/RenAsset/RenAsset.sol:RenAssetV2",
        "label": "_decimals",
        "offset": 0,
        "slot": "201",
        "type": "t_uint8"
      },
      {
        "astId": 11502,
        "contract": "src/RenAsset/RenAsset.sol:RenAssetV2",
        "label": "__gap",
        "offset": 0,
        "slot": "202",
        "type": "t_array(t_uint256)49_storage"
      }
    ],
    "types": {
      "t_address": {
        "encoding": "inplace",
        "label": "address",
        "numberOfBytes": "20"
      },
      "t_array(t_uint256)45_storage": {
        "base": "t_uint256",
        "encoding": "inplace",
        "label": "uint256[45]",
        "numberOfBytes": "1440"
      },
      "t_array(t_uint256)47_storage": {
        "base": "t_uint256",
        "encoding": "inplace",
        "label": "uint256[47]",
        "numberOfBytes": "1504"
      },
      "t_array(t_uint256)49_storage": {
        "base": "t_uint256",
        "encoding": "inplace",
        "label": "uint256[49]",
        "numberOfBytes": "1568"
      },
      "t_array(t_uint256)50_storage": {
        "base": "t_uint256",
        "encoding": "inplace",
        "label": "uint256[50]",
        "numberOfBytes": "1600"
      },
      "t_bool": {
        "encoding": "inplace",
        "label": "bool",
        "numberOfBytes": "1"
      },
      "t_bytes32": {
        "encoding": "inplace",
        "label": "bytes32",
        "numberOfBytes": "32"
      },
      "t_mapping(t_address,t_mapping(t_address,t_uint256))": {
        "encoding": "mapping",
        "key": "t_address",
        "label": "mapping(address => mapping(address => uint256))",
        "numberOfBytes": "32",
        "value": "t_mapping(t_address,t_uint256)"
      },
      "t_mapping(t_address,t_uint256)": {
        "encoding": "mapping",
        "key": "t_address",
        "label": "mapping(address => uint256)",
        "numberOfBytes": "32",
        "value": "t_uint256"
      },
      "t_string_storage": {
        "encoding": "bytes",
        "label": "string",
        "numberOfBytes": "32"
      },
      "t_uint256": {
        "encoding": "inplace",
        "label": "uint256",
        "numberOfBytes": "32"
      },
      "t_uint8": {
        "encoding": "inplace",
        "label": "uint8",
        "numberOfBytes": "1"
      }
    }
  }
}